:100000000C9434000C943E000C943E000C943E0082
:100010000C943E000C943E000C943E000C943E0068
:100020000C943E000C943E000C943E000C943E0058
:100030000C943E000C943E000C943E000C943E0048
:100040000C943E000C943E000C943E000C943E0038
:100050000C943E000C943E000C943E000C943E0028
:100060000C943E000C943E0011241FBECFEFD8E04C
:10007000DEBFCDBF0E9494000C9496000C9400004B
:1000800080917C00806480937C0080917A00836002
:1000900080937A0080917A00806880937A0081E072
:1000A00084B915B891E080917A00806480937A00D9
:1000B00020917800309179002115324010F495B9E3
:1000C000F2CF15B8F0CF8BB9089583E08AB9219AA1
:1000D0008FEF91E090938900809388008091800059
:1000E000806880938000809180008360809380008E
:1000F0008091810082608093810091E082E09BB9D1
:100100002FE73AE146E0215030404040E1F700C09F
:1001100000008BB92FE73AE146E0215030404040E3
:10012000E1F700C00000EBCF0E944000F894FFCF41
:00000001FF
